:10038600021C28487E082C5A44444FE54F444A51E3
:10039600007C44447C44447C14247F84043F043F12
:10029E000808007C8282827C00000810000000406A
:1002AE00FF000000081800418385897100000820B6
:1002BE000042898989760000082800700808087EA7
:1002CE000000083000324949494600000838007ED7
:1002DE00898989460000084000404040407F000068
:1002EE00084800768989897600000850007289894D
:1002FE00897E0000085A7FBFDFEFF7FBFDFE025834
:02030E000000ED
:1003BC00AE071FEE600B007E027DC7DDFEDEFC800B
:0103CC00EF41
:0103CD00220D
:0503DD00C2B5C2B6220A
:02031100AD0736
:10031300E4FB7480A805088002C313D8FCFDE4FB4A
:1003230074807E00A803088006CEA2E713CE13D8FC
:10033300F8FFEDF582EF558224FF92B4D2B6C2B630
:080343000BBB08DCD2B5C2B50A
:01034B00228F
:1003A6008C648D65120311E565F4F5807F021203F6
:0603B600BC7FFF020311F1
:0403CE007F017E002D
:0B03D200EF1FAC0670011E4C70F622FD
:10034C002563F8E6FF12035D7F647E001203D2E49E
:01035C00FFA1
:02035D00AD07EA
:10035F00E4FBEDC4131313540124FF92B4ED25E015
:10036F00FDC2B61203CED2B61203CE0BBB08E3D238
:06037F00B51203CEC2B569
:010385002255
:100003007918E4F5621203DDE4FAAF02EA299003FA
:100013008693FD7C001203A60ABA08EE0562E56228
:10002300D39405400BE4F56219E994015002791861
:0300330020B1D524
:10003600E4F563755800755932E55945586023E56E
:1000460059155970021558E4F563E563C3940850D1
:10005600E8745A2563F8E6F580745012034C05637C
:1000660080E8755800755932E55945586023E559B9
:10007600155970021558E4F563E563C3940850E812
:10008600745A2563F8E6F580744812034C056380BC
:10009600E8755800755932E55945586023E55915F4
:1000A6005970021558E4F563E563C3940850E87483
:1000B6005A2563F8E6F580744012034C056380E820
:1000C600755800755932E55945586023E559155953
:1000D60070021558E4F563E563C3940850E8745A52
:1000E6002563F8E6F580743812034C056380E875DD
:1000F6005800755932E55945586023E55915597028
:10010600021558E4F563E563C3940850E8745A256C
:1001160063F8E6F580743012034C056380E8755881
:1001260000755932E55945586023E559155970024D
:100136001558E4F563E563C3940850E8745A2563DB
:10014600F8E6F580742812034C056380E8755800BC
:10015600755932E55945586023E559155970021508
:1001660058E4F563E563C3940850E8745A2563F8C8
:10017600E6F580742012034C056380E87558007517
:100186005932E55945586023E559155970021558F5
:10019600E4F563E563C3940850E8745A2563F8E60A
:1001A600F580741812034C056380E875580075597C
:1001B60032E55945586023E559155970021558E43A
:1001C600F563E563C3940850E8745A2563F8E6F5C9
:1001D60080741012034C056380E875580075593217
:1001E600E55945587003020039E55915597002154D
:1001F60058E4F563E563C3940850E5745A2563F83B
:0C020600E6F580740812034C056380E8E4
:03000000020212E7
:0C021200787FE4F6D8FD75816502025982
:10021E00020003E493A3F8E493A34003F68001F2F3
:10022E0008DFF48029E493A3F85407240CC8C333E1
:10023E00C4540F4420C8834004F456800146F6DFB0
:10024E00E4800B010204081020408090029EE47EA0
:10025E00019360BCA3FF543F30E509541FFEE493A5
:10026E00A360010ECF54C025E060A840B8E493A36C
:10027E00FAE493A3F8E493A3C8C582C8CAC583CA97
:10028E00F0A3C8C582C8CAC583CADFE9DEE780BE4F
:0103100000EC
:00000001FF
